{
    "contractName": "StargateProxy",
    "abi": [
        {
            "inputs": [
                {
                    "internalType": "contract IERC20",
                    "name": "_asset",
                    "type": "address"
                },
                {
                    "internalType": "string",
                    "name": "_name",
                    "type": "string"
                },
                {
                    "internalType": "string",
                    "name": "_symbol",
                    "type": "string"
                },
                {
                    "internalType": "address",
                    "name": "_stargatePool",
                    "type": "address"
                },
                {
                    "internalType": "address",
                    "name": "_multiRewarder",
                    "type": "address"
                }
            ],
            "stateMutability": "nonpayable",
            "type": "constructor"
        },
        {
            "inputs": [
                {
                    "internalType": "address",
                    "name": "target",
                    "type": "address"
                }
            ],
            "name": "AddressEmptyCode",
            "type": "error"
        },
        {
            "inputs": [
                {
                    "internalType": "address",
                    "name": "account",
                    "type": "address"
                }
            ],
            "name": "AddressInsufficientBalance",
            "type": "error"
        },
        {
            "inputs": [
                {
                    "internalType": "address",
                    "name": "spender",
                    "type": "address"
                },
                {
                    "internalType": "uint256",
                    "name": "allowance",
                    "type": "uint256"
                },
                {
                    "internalType": "uint256",
                    "name": "needed",
                    "type": "uint256"
                }
            ],
            "name": "ERC20InsufficientAllowance",
            "type": "error"
        },
        {
            "inputs": [
                {
                    "internalType": "address",
                    "name": "sender",
                    "type": "address"
                },
                {
                    "internalType": "uint256",
                    "name": "balance",
                    "type": "uint256"
                },
                {
                    "internalType": "uint256",
                    "name": "needed",
                    "type": "uint256"
                }
            ],
            "name": "ERC20InsufficientBalance",
            "type": "error"
        },
        {
            "inputs": [
                {
                    "internalType": "address",
                    "name": "approver",
                    "type": "address"
                }
            ],
            "name": "ERC20InvalidApprover",
            "type": "error"
        },
        {
            "inputs": [
                {
                    "internalType": "address",
                    "name": "receiver",
                    "type": "address"
                }
            ],
            "name": "ERC20InvalidReceiver",
            "type": "error"
        },
        {
            "inputs": [
                {
                    "internalType": "address",
                    "name": "sender",
                    "type": "address"
                }
            ],
            "name": "ERC20InvalidSender",
            "type": "error"
        },
        {
            "inputs": [
                {
                    "internalType": "address",
                    "name": "spender",
                    "type": "address"
                }
            ],
            "name": "ERC20InvalidSpender",
            "type": "error"
        },
        {
            "inputs": [
                {
                    "internalType": "address",
                    "name": "receiver",
                    "type": "address"
                },
                {
                    "internalType": "uint256",
                    "name": "assets",
                    "type": "uint256"
                },
                {
                    "internalType": "uint256",
                    "name": "max",
                    "type": "uint256"
                }
            ],
            "name": "ERC4626ExceededMaxDeposit",
            "type": "error"
        },
        {
            "inputs": [
                {
                    "internalType": "address",
                    "name": "receiver",
                    "type": "address"
                },
                {
                    "internalType": "uint256",
                    "name": "shares",
                    "type": "uint256"
                },
                {
                    "internalType": "uint256",
                    "name": "max",
                    "type": "uint256"
                }
            ],
            "name": "ERC4626ExceededMaxMint",
            "type": "error"
        },
        {
            "inputs": [
                {
                    "internalType": "address",
                    "name": "owner",
                    "type": "address"
                },
                {
                    "internalType": "uint256",
                    "name": "shares",
                    "type": "uint256"
                },
                {
                    "internalType": "uint256",
                    "name": "max",
                    "type": "uint256"
                }
            ],
            "name": "ERC4626ExceededMaxRedeem",
            "type": "error"
        },
        {
            "inputs": [
                {
                    "internalType": "address",
                    "name": "owner",
                    "type": "address"
                },
                {
                    "internalType": "uint256",
                    "name": "assets",
                    "type": "uint256"
                },
                {
                    "internalType": "uint256",
                    "name": "max",
                    "type": "uint256"
                }
            ],
            "name": "ERC4626ExceededMaxWithdraw",
            "type": "error"
        },
        {
            "inputs": [],
            "name": "FailedInnerCall",
            "type": "error"
        },
        {
            "inputs": [],
            "name": "MathOverflowedMulDiv",
            "type": "error"
        },
        {
            "inputs": [
                {
                    "internalType": "address",
                    "name": "token",
                    "type": "address"
                }
            ],
            "name": "SafeERC20FailedOperation",
            "type": "error"
        },
        {
            "anonymous": false,
            "inputs": [
                {
                    "indexed": true,
                    "internalType": "address",
                    "name": "owner",
                    "type": "address"
                },
                {
                    "indexed": true,
                    "internalType": "address",
                    "name": "spender",
                    "type": "address"
                },
                {
                    "indexed": false,
                    "internalType": "uint256",
                    "name": "value",
                    "type": "uint256"
                }
            ],
            "name": "Approval",
            "type": "event"
        },
        {
            "anonymous": false,
            "inputs": [
                {
                    "indexed": true,
                    "internalType": "address",
                    "name": "sender",
                    "type": "address"
                },
                {
                    "indexed": true,
                    "internalType": "address",
                    "name": "owner",
                    "type": "address"
                },
                {
                    "indexed": false,
                    "internalType": "uint256",
                    "name": "assets",
                    "type": "uint256"
                },
                {
                    "indexed": false,
                    "internalType": "uint256",
                    "name": "shares",
                    "type": "uint256"
                }
            ],
            "name": "Deposit",
            "type": "event"
        },
        {
            "anonymous": false,
            "inputs": [
                {
                    "indexed": true,
                    "internalType": "address",
                    "name": "from",
                    "type": "address"
                },
                {
                    "indexed": true,
                    "internalType": "address",
                    "name": "to",
                    "type": "address"
                },
                {
                    "indexed": false,
                    "internalType": "uint256",
                    "name": "value",
                    "type": "uint256"
                }
            ],
            "name": "Transfer",
            "type": "event"
        },
        {
            "anonymous": false,
            "inputs": [
                {
                    "indexed": true,
                    "internalType": "address",
                    "name": "sender",
                    "type": "address"
                },
                {
                    "indexed": true,
                    "internalType": "address",
                    "name": "receiver",
                    "type": "address"
                },
                {
                    "indexed": true,
                    "internalType": "address",
                    "name": "owner",
                    "type": "address"
                },
                {
                    "indexed": false,
                    "internalType": "uint256",
                    "name": "assets",
                    "type": "uint256"
                },
                {
                    "indexed": false,
                    "internalType": "uint256",
                    "name": "shares",
                    "type": "uint256"
                }
            ],
            "name": "Withdraw",
            "type": "event"
        },
        {
            "stateMutability": "payable",
            "type": "fallback"
        },
        {
            "inputs": [
                {
                    "internalType": "address",
                    "name": "owner",
                    "type": "address"
                },
                {
                    "internalType": "address",
                    "name": "spender",
                    "type": "address"
                }
            ],
            "name": "allowance",
            "outputs": [
                {
                    "internalType": "uint256",
                    "name": "",
                    "type": "uint256"
                }
            ],
            "stateMutability": "view",
            "type": "function"
        },
        {
            "inputs": [
                {
                    "internalType": "address",
                    "name": "spender",
                    "type": "address"
                },
                {
                    "internalType": "uint256",
                    "name": "value",
                    "type": "uint256"
                }
            ],
            "name": "approve",
            "outputs": [
                {
                    "internalType": "bool",
                    "name": "",
                    "type": "bool"
                }
            ],
            "stateMutability": "nonpayable",
            "type": "function"
        },
        {
            "inputs": [],
            "name": "asset",
            "outputs": [
                {
                    "internalType": "address",
                    "name": "",
                    "type": "address"
                }
            ],
            "stateMutability": "view",
            "type": "function"
        },
        {
            "inputs": [
                {
                    "internalType": "address",
                    "name": "account",
                    "type": "address"
                }
            ],
            "name": "balanceOf",
            "outputs": [
                {
                    "internalType": "uint256",
                    "name": "",
                    "type": "uint256"
                }
            ],
            "stateMutability": "view",
            "type": "function"
        },
        {
            "inputs": [
                {
                    "internalType": "uint256",
                    "name": "shares",
                    "type": "uint256"
                }
            ],
            "name": "convertToAssets",
            "outputs": [
                {
                    "internalType": "uint256",
                    "name": "",
                    "type": "uint256"
                }
            ],
            "stateMutability": "view",
            "type": "function"
        },
        {
            "inputs": [
                {
                    "internalType": "uint256",
                    "name": "assets",
                    "type": "uint256"
                }
            ],
            "name": "convertToShares",
            "outputs": [
                {
                    "internalType": "uint256",
                    "name": "",
                    "type": "uint256"
                }
            ],
            "stateMutability": "view",
            "type": "function"
        },
        {
            "inputs": [],
            "name": "decimals",
            "outputs": [
                {
                    "internalType": "uint8",
                    "name": "",
                    "type": "uint8"
                }
            ],
            "stateMutability": "view",
            "type": "function"
        },
        {
            "inputs": [
                {
                    "internalType": "uint256",
                    "name": "_amount",
                    "type": "uint256"
                },
                {
                    "internalType": "address",
                    "name": "_receiver",
                    "type": "address"
                }
            ],
            "name": "deposit",
            "outputs": [
                {
                    "internalType": "uint256",
                    "name": "",
                    "type": "uint256"
                }
            ],
            "stateMutability": "nonpayable",
            "type": "function"
        },
        {
            "inputs": [
                {
                    "internalType": "address",
                    "name": "",
                    "type": "address"
                }
            ],
            "name": "maxDeposit",
            "outputs": [
                {
                    "internalType": "uint256",
                    "name": "",
                    "type": "uint256"
                }
            ],
            "stateMutability": "view",
            "type": "function"
        },
        {
            "inputs": [
                {
                    "internalType": "address",
                    "name": "",
                    "type": "address"
                }
            ],
            "name": "maxMint",
            "outputs": [
                {
                    "internalType": "uint256",
                    "name": "",
                    "type": "uint256"
                }
            ],
            "stateMutability": "view",
            "type": "function"
        },
        {
            "inputs": [
                {
                    "internalType": "address",
                    "name": "owner",
                    "type": "address"
                }
            ],
            "name": "maxRedeem",
            "outputs": [
                {
                    "internalType": "uint256",
                    "name": "",
                    "type": "uint256"
                }
            ],
            "stateMutability": "view",
            "type": "function"
        },
        {
            "inputs": [
                {
                    "internalType": "address",
                    "name": "owner",
                    "type": "address"
                }
            ],
            "name": "maxWithdraw",
            "outputs": [
                {
                    "internalType": "uint256",
                    "name": "",
                    "type": "uint256"
                }
            ],
            "stateMutability": "view",
            "type": "function"
        },
        {
            "inputs": [
                {
                    "internalType": "uint256",
                    "name": "shares",
                    "type": "uint256"
                },
                {
                    "internalType": "address",
                    "name": "receiver",
                    "type": "address"
                }
            ],
            "name": "mint",
            "outputs": [
                {
                    "internalType": "uint256",
                    "name": "",
                    "type": "uint256"
                }
            ],
            "stateMutability": "nonpayable",
            "type": "function"
        },
        {
            "inputs": [],
            "name": "multiRewarder",
            "outputs": [
                {
                    "internalType": "contract IMultiRewarder",
                    "name": "",
                    "type": "address"
                }
            ],
            "stateMutability": "view",
            "type": "function"
        },
        {
            "inputs": [],
            "name": "name",
            "outputs": [
                {
                    "internalType": "string",
                    "name": "",
                    "type": "string"
                }
            ],
            "stateMutability": "view",
            "type": "function"
        },
        {
            "inputs": [
                {
                    "internalType": "uint256",
                    "name": "assets",
                    "type": "uint256"
                }
            ],
            "name": "previewDeposit",
            "outputs": [
                {
                    "internalType": "uint256",
                    "name": "",
                    "type": "uint256"
                }
            ],
            "stateMutability": "view",
            "type": "function"
        },
        {
            "inputs": [
                {
                    "internalType": "uint256",
                    "name": "shares",
                    "type": "uint256"
                }
            ],
            "name": "previewMint",
            "outputs": [
                {
                    "internalType": "uint256",
                    "name": "",
                    "type": "uint256"
                }
            ],
            "stateMutability": "view",
            "type": "function"
        },
        {
            "inputs": [
                {
                    "internalType": "uint256",
                    "name": "shares",
                    "type": "uint256"
                }
            ],
            "name": "previewRedeem",
            "outputs": [
                {
                    "internalType": "uint256",
                    "name": "",
                    "type": "uint256"
                }
            ],
            "stateMutability": "view",
            "type": "function"
        },
        {
            "inputs": [
                {
                    "internalType": "uint256",
                    "name": "assets",
                    "type": "uint256"
                }
            ],
            "name": "previewWithdraw",
            "outputs": [
                {
                    "internalType": "uint256",
                    "name": "",
                    "type": "uint256"
                }
            ],
            "stateMutability": "view",
            "type": "function"
        },
        {
            "inputs": [
                {
                    "internalType": "uint256",
                    "name": "shares",
                    "type": "uint256"
                },
                {
                    "internalType": "address",
                    "name": "receiver",
                    "type": "address"
                },
                {
                    "internalType": "address",
                    "name": "owner",
                    "type": "address"
                }
            ],
            "name": "redeem",
            "outputs": [
                {
                    "internalType": "uint256",
                    "name": "",
                    "type": "uint256"
                }
            ],
            "stateMutability": "nonpayable",
            "type": "function"
        },
        {
            "inputs": [],
            "name": "stargatePool",
            "outputs": [
                {
                    "internalType": "contract IStargatePool",
                    "name": "",
                    "type": "address"
                }
            ],
            "stateMutability": "view",
            "type": "function"
        },
        {
            "inputs": [],
            "name": "symbol",
            "outputs": [
                {
                    "internalType": "string",
                    "name": "",
                    "type": "string"
                }
            ],
            "stateMutability": "view",
            "type": "function"
        },
        {
            "inputs": [],
            "name": "totalAssets",
            "outputs": [
                {
                    "internalType": "uint256",
                    "name": "",
                    "type": "uint256"
                }
            ],
            "stateMutability": "view",
            "type": "function"
        },
        {
            "inputs": [],
            "name": "totalSupply",
            "outputs": [
                {
                    "internalType": "uint256",
                    "name": "",
                    "type": "uint256"
                }
            ],
            "stateMutability": "view",
            "type": "function"
        },
        {
            "inputs": [
                {
                    "internalType": "address",
                    "name": "to",
                    "type": "address"
                },
                {
                    "internalType": "uint256",
                    "name": "value",
                    "type": "uint256"
                }
            ],
            "name": "transfer",
            "outputs": [
                {
                    "internalType": "bool",
                    "name": "",
                    "type": "bool"
                }
            ],
            "stateMutability": "nonpayable",
            "type": "function"
        },
        {
            "inputs": [
                {
                    "internalType": "address",
                    "name": "from",
                    "type": "address"
                },
                {
                    "internalType": "address",
                    "name": "to",
                    "type": "address"
                },
                {
                    "internalType": "uint256",
                    "name": "value",
                    "type": "uint256"
                }
            ],
            "name": "transferFrom",
            "outputs": [
                {
                    "internalType": "bool",
                    "name": "",
                    "type": "bool"
                }
            ],
            "stateMutability": "nonpayable",
            "type": "function"
        },
        {
            "inputs": [
                {
                    "internalType": "uint256",
                    "name": "assets",
                    "type": "uint256"
                },
                {
                    "internalType": "address",
                    "name": "receiver",
                    "type": "address"
                },
                {
                    "internalType": "address",
                    "name": "owner",
                    "type": "address"
                }
            ],
            "name": "withdraw",
            "outputs": [
                {
                    "internalType": "uint256",
                    "name": "",
                    "type": "uint256"
                }
            ],
            "stateMutability": "nonpayable",
            "type": "function"
        },
        {
            "stateMutability": "payable",
            "type": "receive"
        }
    ],
    "bytecode": "60c060405234801562000010575f80fd5b5060405162001dc638038062001dc683398101604081905262000033916200027f565b8484846003620000448382620003b1565b506004620000538282620003b1565b5050505f806200006983620000c260201b60201c565b91509150816200007b5760126200007d565b805b60ff1660a05250506001600160a01b03908116608052600580549382166001600160a01b031994851617905560068054929091169190921617905550620004ae915050565b60408051600481526024810182526020810180516001600160e01b031663313ce56760e01b17905290515f918291829182916001600160a01b038716916200010a9162000479565b5f60405180830381855afa9150503d805f811462000144576040519150601f19603f3d011682016040523d82523d5f602084013e62000149565b606091505b50915091508180156200015e57506020815110155b1562000195575f818060200190518101906200017b919062000496565b905060ff811162000193576001969095509350505050565b505b505f9485945092505050565b6001600160a01b0381168114620001b6575f80fd5b50565b634e487b7160e01b5f52604160045260245ffd5b5f5b83811015620001e9578181015183820152602001620001cf565b50505f910152565b5f82601f83011262000201575f80fd5b81516001600160401b03808211156200021e576200021e620001b9565b604051601f8301601f19908116603f01168101908282118183101715620002495762000249620001b9565b8160405283815286602085880101111562000262575f80fd5b62000275846020830160208901620001cd565b9695505050505050565b5f805f805f60a0868803121562000294575f80fd5b8551620002a181620001a1565b60208701519095506001600160401b0380821115620002be575f80fd5b620002cc89838a01620001f1565b95506040880151915080821115620002e2575f80fd5b50620002f188828901620001f1565b93505060608601516200030481620001a1565b60808701519092506200031781620001a1565b809150509295509295909350565b600181811c908216806200033a57607f821691505b6020821081036200035957634e487b7160e01b5f52602260045260245ffd5b50919050565b601f821115620003ac575f81815260208120601f850160051c81016020861015620003875750805b601f850160051c820191505b81811015620003a85782815560010162000393565b5050505b505050565b81516001600160401b03811115620003cd57620003cd620001b9565b620003e581620003de845462000325565b846200035f565b602080601f8311600181146200041b575f8415620004035750858301515b5f19600386901b1c1916600185901b178555620003a8565b5f85815260208120601f198616915b828110156200044b578886015182559484019460019091019084016200042a565b50858210156200046957878501515f19600388901b60f8161c191681555b5050505050600190811b01905550565b5f82516200048c818460208701620001cd565b9190910192915050565b5f60208284031215620004a7575f80fd5b5051919050565b60805160a0516118d3620004f35f395f61066501525f81816102af015281816104ff015281816107320152818161097a01528181610c860152610d8f01526118d35ff3fe60806040526004361061018a575f3560e01c806391ca47c7116100df578063c63d75b611610083578063d905777e11610060578063d905777e14610466578063dd62ed3e14610485578063e640c103146104c9578063ef8b30f71461042857005b8063c63d75b6146102e7578063c6e6f59214610428578063ce96cb771461044757005b8063a9059cbb116100bc578063a9059cbb146103ac578063b3d7f6b9146103cb578063b460af94146103ea578063ba0876521461040957005b806391ca47c71461035a57806394bf804d1461037957806395d89b411461039857005b806323b872dd11610146578063402d267d11610123578063402d267d146102e75780634cdad506146101db5780636e553f651461030757806370a082311461032657005b806323b872dd1461025c578063313ce5671461027b57806338d52e0f146102a157005b806301e1d1141461019357806306fdde03146101ba57806307a2d13a146101db578063095ea7b3146101fa5780630a28a4771461022957806318160ddd1461024857005b3661019157005b005b34801561019e575f80fd5b506101a76104e8565b6040519081526020015b60405180910390f35b3480156101c5575f80fd5b506101ce610575565b6040516101b191906113ec565b3480156101e6575f80fd5b506101a76101f53660046113fe565b610605565b348015610205575f80fd5b50610219610214366004611430565b610616565b60405190151581526020016101b1565b348015610234575f80fd5b506101a76102433660046113fe565b61062d565b348015610253575f80fd5b506002546101a7565b348015610267575f80fd5b50610219610276366004611458565b610639565b348015610286575f80fd5b5061028f61065e565b60405160ff90911681526020016101b1565b3480156102ac575f80fd5b507f00000000000000000000000000000000000000000000000000000000000000005b6040516001600160a01b0390911681526020016101b1565b3480156102f2575f80fd5b506101a7610301366004611491565b505f1990565b348015610312575f80fd5b506101a76103213660046114aa565b610689565b348015610331575f80fd5b506101a7610340366004611491565b6001600160a01b03165f9081526020819052604090205490565b348015610365575f80fd5b506005546102cf906001600160a01b031681565b348015610384575f80fd5b506101a76103933660046114aa565b61084e565b3480156103a3575f80fd5b506101ce61087f565b3480156103b7575f80fd5b506102196103c6366004611430565b61088e565b3480156103d6575f80fd5b506101a76103e53660046113fe565b61089b565b3480156103f5575f80fd5b506101a76104043660046114d4565b6108a7565b348015610414575f80fd5b506101a76104233660046114d4565b6109ff565b348015610433575f80fd5b506101a76104423660046113fe565b610a4c565b348015610452575f80fd5b506101a7610461366004611491565b610a57565b348015610471575f80fd5b506101a7610480366004611491565b610a79565b348015610490575f80fd5b506101a761049f36600461150d565b6001600160a01b039182165f90815260016020908152604080832093909416825291909152205490565b3480156104d4575f80fd5b506006546102cf906001600160a01b031681565b6040516370a0823160e01b81523060048201525f907f00000000000000000000000000000000000000000000000000000000000000006001600160a01b0316906370a0823190602401602060405180830381865afa15801561054c573d5f803e3d5ffd5b505050506040513d601f19601f820116820180604052508101906105709190611535565b905090565b6060600380546105849061154c565b80601f01602080910402602001604051908101604052809291908181526020018280546105b09061154c565b80156105fb5780601f106105d2576101008083540402835291602001916105fb565b820191905f5260205f20905b8154815290600101906020018083116105de57829003601f168201915b5050505050905090565b5f610610825f610a96565b92915050565b5f33610623818585610ace565b5060019392505050565b5f610610826001610ae0565b5f33610646858285610b0f565b610651858585610b77565b60019150505b9392505050565b5f610570817f0000000000000000000000000000000000000000000000000000000000000000611598565b5f806106958484610bd4565b905061072f604051806040016040528060138152602001722573206d696e7465642025732073686172657360681b8152508483306001600160a01b03166395d89b416040518163ffffffff1660e01b81526004015f60405180830381865afa158015610703573d5f803e3d5ffd5b505050506040513d5f823e601f3d908101601f1916820160405261072a91908101906115c5565b610bef565b5f7f0000000000000000000000000000000000000000000000000000000000000000604051632e1a7d4d60e01b8152600481018790529091506001600160a01b03821690632e1a7d4d906024015f604051808303815f87803b158015610793575f80fd5b505af11580156107a5573d5f803e3d5ffd5b50506005546040516311f9fbc960e21b8152306004820152602481018990525f93506001600160a01b0390911691506347e7ef2490889060440160206040518083038185885af11580156107fb573d5f803e3d5ffd5b50505050506040513d601f19601f820116820180604052508101906108209190611535565b905061084460405180606001604052806024815260200161187a6024913982610c38565b5090949350505050565b5f5f1961085f565b60405180910390fd5b5f6108698561089b565b905061087733858388610c81565b949350505050565b6060600480546105849061154c565b5f33610623818585610b77565b5f610610826001610a96565b6001600160a01b0381165f908152602081905260408120548411156109045760405162461bcd60e51b815260206004820152601360248201527224b739bab33334b1b4b2b73a10333ab732399760691b6044820152606401610856565b600554604051633def417960e11b8152600481018690523060248201526001600160a01b0390911690637bde82f2906044016020604051808303815f875af1158015610952573d5f803e3d5ffd5b505050506040513d601f19601f820116820180604052508101906109769190611535565b505f7f00000000000000000000000000000000000000000000000000000000000000009050806001600160a01b031663d0e30db0866040518263ffffffff1660e01b81526004015f604051808303818588803b1580156109d4575f80fd5b505af11580156109e6573d5f803e3d5ffd5b50505050506109f6858585610d13565b95945050505050565b5f80610a0a83610a79565b905080851115610a3357828582604051632e52afbb60e21b81526004016108569392919061166d565b5f610a3d86610605565b90506109f6338686848a610d5c565b5f610610825f610ae0565b6001600160a01b0381165f90815260208190526040812054610610905f610a96565b6001600160a01b0381165f90815260208190526040812054610610565b5f610657610aa26104e8565b610aad90600161168e565b610ab85f600a611781565b600254610ac5919061168e565b85919085610e1c565b610adb8383836001610e69565b505050565b5f610657610aef82600a611781565b600254610afc919061168e565b610b046104e8565b610ac590600161168e565b6001600160a01b038381165f908152600160209081526040808320938616835292905220545f198114610b715781811015610b6357828183604051637dc7a0d960e11b81526004016108569392919061166d565b610b7184848484035f610e69565b50505050565b6001600160a01b038316610ba057604051634b637e8f60e11b81525f6004820152602401610856565b6001600160a01b038216610bc95760405163ec442f0560e01b81525f6004820152602401610856565b610adb838383610f2d565b5f5f195f610be185610a4c565b905061087733858784610c81565b610b7184848484604051602401610c09949392919061178f565b60408051601f198184030181529190526020810180516001600160e01b03166313157c8d60e21b179052611040565b610c7d8282604051602401610c4e9291906117c9565b60408051601f198184030181529190526020810180516001600160e01b03166309710a9d60e41b179052611040565b5050565b610cad7f0000000000000000000000000000000000000000000000000000000000000000853085611060565b610cb783826110c7565b826001600160a01b0316846001600160a01b03167fdcbc1c05240f31ff3ad067ef1ee35ce4997762752e3a095284754544f4c709d78484604051610d05929190918252602082015260400190565b60405180910390a350505050565b5f80610d1e83610a57565b905080851115610d4757828582604051633fa733bb60e21b81526004016108569392919061166d565b5f610d518661062d565b90506109f633868689855b826001600160a01b0316856001600160a01b031614610d8057610d80838683610b0f565b610d8a83826110fb565b610db57f0000000000000000000000000000000000000000000000000000000000000000858461112f565b826001600160a01b0316846001600160a01b0316866001600160a01b03167ffbde797d201c681b91056529119e0b02407c7bb96a4a2c75c01fc9667232c8db8585604051610e0d929190918252602082015260400190565b60405180910390a45050505050565b5f80610e29868686611160565b9050610e348361121f565b8015610e4f57505f8480610e4a57610e4a6117ea565b868809115b156109f657610e5f60018261168e565b9695505050505050565b6001600160a01b038416610e925760405163e602df0560e01b81525f6004820152602401610856565b6001600160a01b038316610ebb57604051634a1406b160e11b81525f6004820152602401610856565b6001600160a01b038085165f9081526001602090815260408083209387168352929052208290558015610b7157826001600160a01b0316846001600160a01b03167f8c5be1e5ebec7d5bd14f71427d1e84f3dd0314c0f7b2291e5b200ac8c7c3b92584604051610d0591815260200190565b6001600160a01b038316610f57578060025f828254610f4c919061168e565b90915550610fb49050565b6001600160a01b0383165f9081526020819052604090205481811015610f965783818360405163391434e360e21b81526004016108569392919061166d565b6001600160a01b0384165f9081526020819052604090209082900390555b6001600160a01b038216610fd057600280548290039055610fee565b6001600160a01b0382165f9081526020819052604090208054820190555b816001600160a01b0316836001600160a01b03167fddf252ad1be2c89b69c2b068fc378daa952ba7f163c4a11628f55a4df523b3ef8360405161103391815260200190565b60405180910390a3505050565b80516a636f6e736f6c652e6c6f67602083015f808483855afa5050505050565b6040516001600160a01b038481166024830152838116604483015260648201839052610b719186918216906323b872dd906084015b604051602081830303815290604052915060e01b6020820180516001600160e01b03838183161783525050505061124b565b6001600160a01b0382166110f05760405163ec442f0560e01b81525f6004820152602401610856565b610c7d5f8383610f2d565b6001600160a01b03821661112457604051634b637e8f60e11b81525f6004820152602401610856565b610c7d825f83610f2d565b6040516001600160a01b03838116602483015260448201839052610adb91859182169063a9059cbb90606401611095565b5f838302815f1985870982811083820303915050805f036111945783828161118a5761118a6117ea565b0492505050610657565b8084116111b45760405163227bc15360e01b815260040160405180910390fd5b5f848688095f868103871696879004966002600389028118808a02820302808a02820302808a02820302808a02820302808a02820302808a02909103029181900381900460010186841190950394909402919094039290920491909117919091029150509392505050565b5f6002826003811115611234576112346117fe565b61123e9190611812565b60ff166001149050919050565b5f61125f6001600160a01b038416836112ac565b905080515f14158015611283575080806020019051810190611281919061183f565b155b15610adb57604051635274afe760e01b81526001600160a01b0384166004820152602401610856565b606061065783835f845f80856001600160a01b031684866040516112d0919061185e565b5f6040518083038185875af1925050503d805f811461130a576040519150601f19603f3d011682016040523d82523d5f602084013e61130f565b606091505b5091509150610e5f86838360608261132f5761132a82611376565b610657565b815115801561134657506001600160a01b0384163b155b1561136f57604051639996b31560e01b81526001600160a01b0385166004820152602401610856565b5080610657565b8051156113865780518082602001fd5b604051630a12f52160e11b815260040160405180910390fd5b5f5b838110156113b95781810151838201526020016113a1565b50505f910152565b5f81518084526113d881602086016020860161139f565b601f01601f19169290920160200192915050565b602081525f61065760208301846113c1565b5f6020828403121561140e575f80fd5b5035919050565b80356001600160a01b038116811461142b575f80fd5b919050565b5f8060408385031215611441575f80fd5b61144a83611415565b946020939093013593505050565b5f805f6060848603121561146a575f80fd5b61147384611415565b925061148160208501611415565b9150604084013590509250925092565b5f602082840312156114a1575f80fd5b61065782611415565b5f80604083850312156114bb575f80fd5b823591506114cb60208401611415565b90509250929050565b5f805f606084860312156114e6575f80fd5b833592506114f660208501611415565b915061150460408501611415565b90509250925092565b5f806040838503121561151e575f80fd5b61152783611415565b91506114cb60208401611415565b5f60208284031215611545575f80fd5b5051919050565b600181811c9082168061156057607f821691505b60208210810361157e57634e487b7160e01b5f52602260045260245ffd5b50919050565b634e487b7160e01b5f52601160045260245ffd5b60ff818116838216019081111561061057610610611584565b634e487b7160e01b5f52604160045260245ffd5b5f602082840312156115d5575f80fd5b815167ffffffffffffffff808211156115ec575f80fd5b818401915084601f8301126115ff575f80fd5b815181811115611611576116116115b1565b604051601f8201601f19908116603f01168101908382118183101715611639576116396115b1565b81604052828152876020848701011115611651575f80fd5b61166283602083016020880161139f565b979650505050505050565b6001600160a01b039390931683526020830191909152604082015260600190565b8082018082111561061057610610611584565b600181815b808511156116db57815f19048211156116c1576116c1611584565b808516156116ce57918102915b93841c93908002906116a6565b509250929050565b5f826116f157506001610610565b816116fd57505f610610565b8160018114611713576002811461171d57611739565b6001915050610610565b60ff84111561172e5761172e611584565b50506001821b610610565b5060208310610133831016604e8410600b841016171561175c575081810a610610565b61176683836116a1565b805f190482111561177957611779611584565b029392505050565b5f61065760ff8416836116e3565b608081525f6117a160808301876113c1565b6001600160a01b038616602084015260408301859052828103606084015261166281856113c1565b604081525f6117db60408301856113c1565b90508260208301529392505050565b634e487b7160e01b5f52601260045260245ffd5b634e487b7160e01b5f52602160045260245ffd5b5f60ff83168061183057634e487b7160e01b5f52601260045260245ffd5b8060ff84160691505092915050565b5f6020828403121561184f575f80fd5b81518015158114610657575f80fd5b5f825161186f81846020870161139f565b919091019291505056fe416d6f756e74206f66204c5020476976656e2066726f6d2053746172676174653a202573a264697066735822122043ba3faafc45a2e456d8ee6654fc74da8d674a652948943e452819b2e3a0c99564736f6c63430008140033",
    "sourcePath": "/home/boss/Projects/Giza/packages/foundry/contracts/StargateProxy.sol",
    "compiler": {
        "name": "solc",
        "version": "0.8.20+commit.a1b79de6"
    },
    "functionHashes": {
        "allowance(address,address)": "dd62ed3e",
        "approve(address,uint256)": "095ea7b3",
        "asset()": "38d52e0f",
        "balanceOf(address)": "70a08231",
        "convertToAssets(uint256)": "07a2d13a",
        "convertToShares(uint256)": "c6e6f592",
        "decimals()": "313ce567",
        "deposit(uint256,address)": "6e553f65",
        "maxDeposit(address)": "402d267d",
        "maxMint(address)": "c63d75b6",
        "maxRedeem(address)": "d905777e",
        "maxWithdraw(address)": "ce96cb77",
        "mint(uint256,address)": "94bf804d",
        "multiRewarder()": "e640c103",
        "name()": "06fdde03",
        "previewDeposit(uint256)": "ef8b30f7",
        "previewMint(uint256)": "b3d7f6b9",
        "previewRedeem(uint256)": "4cdad506",
        "previewWithdraw(uint256)": "0a28a477",
        "redeem(uint256,address,address)": "ba087652",
        "stargatePool()": "91ca47c7",
        "symbol()": "95d89b41",
        "totalAssets()": "01e1d114",
        "totalSupply()": "18160ddd",
        "transfer(address,uint256)": "a9059cbb",
        "transferFrom(address,address,uint256)": "23b872dd",
        "withdraw(uint256,address,address)": "b460af94"
    },
    "gasEstimates": {
        "creation": {
            "codeDepositCost": "1271000",
            "executionCost": "infinite",
            "totalCost": "infinite"
        },
        "external": {
            "": "228",
            "allowance(address,address)": "infinite",
            "approve(address,uint256)": "24798",
            "asset()": "infinite",
            "balanceOf(address)": "2637",
            "convertToAssets(uint256)": "infinite",
            "convertToShares(uint256)": "infinite",
            "decimals()": "infinite",
            "deposit(uint256,address)": "infinite",
            "maxDeposit(address)": "389",
            "maxMint(address)": "389",
            "maxRedeem(address)": "2604",
            "maxWithdraw(address)": "infinite",
            "mint(uint256,address)": "infinite",
            "multiRewarder()": "2424",
            "name()": "infinite",
            "previewDeposit(uint256)": "infinite",
            "previewMint(uint256)": "infinite",
            "previewRedeem(uint256)": "infinite",
            "previewWithdraw(uint256)": "infinite",
            "redeem(uint256,address,address)": "infinite",
            "stargatePool()": "2382",
            "symbol()": "infinite",
            "totalAssets()": "infinite",
            "totalSupply()": "2414",
            "transfer(address,uint256)": "51257",
            "transferFrom(address,address,uint256)": "infinite",
            "withdraw(uint256,address,address)": "infinite"
        }
    }
}